:020000040800F2
:1000000000040020A1020008957F0008957F0008E9
:10001000957F0008957F0008957F0008957F000870
:10002000957F0008957F0008957F0008793C0008BF
:10003000957F0008957F0008957F0008957F000850
:10004000957F0008957F0008957F0008957F000840
:10005000957F0008957F00081196000865960008B6
:10006000B99600080D97000861970008FD4F000839
:100070002D5000086150000895500008C950000834
:10008000F95000082D510008957F0008957F000861
:10009000957F0008957F0008957F0008B5970008B8
:1000A000957F0008957F0008957F0008957F0008E0
:1000B000957F0008957F0008957F0008957F0008D0
:1000C000957F0008957F0008957F0008957F0008C0
:1000D000957F0008C1A200081DA3000881A30008A5
:1000E00009980008957F0008957F0008957F000813
:1000F000957F0008957F0008957F000861510008F2
:10010000957F0008553D000849770008957F000855
:10011000E5A3000849A40008957F0008957F000822
:1001200095510008C5510008F95100082D520008EA
:1001300061520008957F0008957F0008957F0008B0
:10014000957F0008957F0008957F00081D4D0008E9
:1001500091520008C5520008F9520008ADA40008E9
:10016000957F0008957F0008957F0008957F00081F
:10017000957F0008957F0008957F0008957F00080F
:10018000957F0008957F0008957F0008957F0008FF
:10019000957F0008957F0008957F0008957F0008EF
:1001A000957F0008957F0008957F0008957F0008DF
:1001B000957F0008957F0008957F0008957F0008CF
:1001C00045280108250200087D1000082D8100083F
:1001D000318F000815AB000851BB000895BF00081F
:1001E00001F10008E1F70008A90101088D090108E3
:0801F0001120010801020008C2
:1002000010B5054C237833B9044B13B10448AFF350
:1002100000800123237010BD381100200000000071
:10022000A04601080C4B43B10C4810B50C49AFF384
:1002300000800C48036823B910BD0A48036833B92D
:100240007047094B002BF7D0BDE810401847064B0C
:10025000002BF5D0184700BF00000000A0460108A1
:100260003C11002034110020000000002DE9F04F67
:10027000C1F80CD0C3689D46BDE8F08F05F0F6F8D4
:10028000002383F311882846A047002005F0ECFFE7
:1002900005F0DCF805F098FC05F0E8F800DFFEE773
:1002A00072B6264880F3098825484EF60851CEF2EA
:1002B00000010860022080F31488BFF36F8F06F0FE
:1002C00035F909F061FD4FF055301E491E4A914243
:1002D0003CBF41F8040BFAE71C49184A91423CBF65
:1002E00041F8040BFAE71A491A4A1B4B9A423EBFDF
:1002F00051F8040B42F8040BF8E700201749184A9C
:1003000091423CBF41F8040BFAE706F015F906F0FC
:100310000FF9144C144DAC4203DA54F8041B88470F
:10032000F9E711F039FA114C114DAC4203DA54F8E7
:10033000041B8847F9E706F0FDB80000000800201C
:10034000000000080000002000040020000400203D
:10035000A0460108000800203411002038110020B8
:1003600034390120C0010008F4010008F40100083C
:10037000F8010008430803F05533C01A830803F05E
:10038000333300F03330184400EB101000F00F301E
:1003900000EB002000EB0040000E7047844641EA6D
:1003A000000313F0030349D1403A23D30B680360E1
:1003B0004B6843608B688360CB68C3600B690361E3
:1003C0004B6943618B698361CB69C3610B6A0362CB
:1003D0004B6A43628B6A8362CB6AC3620B6B0363B3
:1003E0004B6B43638B6B8363CB6BC3634030403198
:1003F000403ADBD230320BD30B6803604B6843606A
:100400008B688360CB68C36010301031103AF3D230
:100410000C3205D351F8043B40F8043B043AF9D2BE
:10042000043208D0D2071CBF11F8013B00F8013B91
:1004300001D30B8803806046704700BF082A13D39E
:100440008B07B1D010F00303AED0C3F10403D21A6E
:10045000DB071CBF11F8013B00F8013BA4D331F8C6
:10046000023B20F8023B9FE7043AD9D3013A11F846
:10047000013B00F8013BF9D20B7803704B784370D5
:100480008B7883706046704780EA010C1CF0030F84
:1004900037D110F0030C20F0030021F0030150F8D5
:1004A000042B08BF51F8043B0ED08CF0030C6FF006
:1004B0007F434FEACC0C23FA0CFC51F8043B42EA90
:1004C0000C0243EA0C0300BFA2F1013C9A4201BFB7
:1004D0002CEA020C1CF0803F50F8042B51F8043B2E
:1004E000F2D04FEA02604FEA1222012828BFB0EB97
:1004F000036F08BF1B0AF4D003F0FF03000EC01AFD
:10050000704710F0030F0AD010F8012B11F8013BCF
:10051000012A28BF9A42F4D0A2EB030070474DF89D
:10052000045D50F8042B01F0030521F0030151F89C
:10053000043B022D26D04DD822F07F45B5EB132F7A
:10054000A2F1013C2CEA020C0DD11CF0803C08BF4A
:1005500051F8043B0AD185EA0205B5EB036F0CD1D3
:1005600050F8042BE8E74FEA13235BE03CF07F4CA4
:1005700054D10B784FEA126554E04FEA126503F04C
:10058000FF034FE04FEA0245A2F1013C4FEA154557
:100590002CEA020CB5EB134F18D11CF0803C08BFBD
:1005A00051F8043B07D185EA0205B5EB034F09D1A9
:1005B00050F8042BE6E75FEA0C4C2FD10B884FEA8A
:1005C00012452FE04FEA03434FEA12454FEA134327
:1005D00028E000BF02F0FF05B5EB136FA2F1013C6C
:1005E0002CEA020C0DD11CF0803C08BF51F8043BF2
:1005F0000AD185EA0205B5EB032F0AD150F8042B86
:10060000E8E74FEA13630DE012F0FF0F06D051F850
:10061000043B4FEA122523F07F4303E04FF0000034
:1006200020BC704705F0FF0203F0FF00012828BF3F
:10063000904204BF2D0A1B0AF4D0A2EB000020BC9C
:10064000704700BF022906D0032906D001290648B9
:1006500018BF0020704705487047032A9ABF044816
:1006600000EBC20000207047D82A01086C2A01085C
:10067000F42A010808B5D3B20246002000F09EFD1E
:10068000003018BF012008BD08B5D3B202460020D3
:1006900000F098FD003018BF012008BD704700BF72
:1006A000044808B503689B689847003018BF0120CC
:1006B00008BD00BF5411002038B504460D46202364
:1006C00083F3118804F0C2FE2B46224603210D4815
:1006D00007F088F904F0CAFE0B4B1A689A4207D05B
:1006E000196993688A689A4202D2084805F06AFC40
:1006F000002383F31188BDE838404FF0FF3004F049
:1007000081BF00BF70360120083801208C2C010801
:1007100008B5202383F3118804F0BCFE044806F0DA
:1007200049FF04F0C9FE002383F3118808BD00BF10
:100730005411002008B5202383F3118804F0AAFE89
:10074000054B4FF48031186804F01AFF04F0B4FE32
:10075000002383F3118808BDF427002008B5202367
:1007600083F3118804F096FE054B4FF4004118689E
:1007700004F006FF04F0A0FE002383F3118808BDF7
:10078000F42700200EB400B582B003AB53F8041B6D
:100790001A46019309F056FB02B05DF804EB03B072
:1007A000704700BFA0F10400ECE700BF90F84420C0
:1007B000034602F06001202901D000207047B0F804
:1007C0004810012919D012F0800F90F8452007D168
:1007D000FF2AF2D1B0F84A00B0FA80F04009704721
:1007E000FE2AEAD1B0F84A000128E6D10021044AE5
:1007F000D863196411709A63704706F0B9BE00BFE0
:10080000EC27002001293BD037D3022934D130B561
:10081000202383B005460C4683F3118804F03AFE8A
:100820002846264A012107F05FF82146244A284637
:1008300007F05AF8234806F085FE2846224A03218D
:1008400007F052F806210122204B214C1A708DF836
:10085000071004F077FED4F8AC30002B13DC1D4BEE
:100860004FF48061186804F08BFE04F025FE00232D
:1008700083F3118803B030BD7047174809F092BC6C
:10088000164809F08FBC04F05DFED4F89430D4F81B
:10089000AC20009803F10801013AC4F8AC20C4F878
:1008A00094101860019804F19002586091420C482D
:1008B00028BFC4F8944005F00DFBD0E7E42B0108F5
:1008C000082C0108541100202C2C010800080020DD
:1008D0009CEE0020F4270020502C0108582C010821
:1008E00034EF002070B5184C0546637CA27C0E46A0
:1008F000207DE17C08F0B6FF2860A17DE07D08F056
:10090000ADFF124B29689B6A42189A42308014D876
:10091000A368B3EB402F0ED00D4809F015FC052459
:10092000202500210B4B01209A781D7364F30302EC
:1009300059739A7070BD002070BD0246064809F0D8
:1009400003FC05242125ECE7F827002024360120AC
:10095000682B010850290020482B01082DE9F04F91
:10096000DFF82CB1444C5D46DFF82881434FDFF8B7
:1009700028A183B004F10809DBF88C341B681B78CC
:10098000042B09D041F2185005F084FCDBF88C34BC
:100990001B681B78042BF5D1DBF800302846DB6898
:1009A00098470028E8DD94F87030C0B273B1002396
:1009B000082884F87030E366DED00D28DCD00A28E1
:1009C000DAD0591C2344E1661872D5E70828E36E93
:1009D00006D00D2809D00A2807D0612BF1D9CBE722
:1009E000002BC9D0013BE366C6E7002BC4D000262C
:1009F00023441E725146484611F086FD0126606769
:100A000084F87060202383F3118804F01FFD8DF8B3
:100A1000076004F097FDD8F8AC30002B18DD04F027
:100A200091FDD8F89430D8F8AC10154A03F10800BD
:100A30000139C8F89400C8F8AC101A6001995960DF
:100A4000104B9842104828BFC8F8948005F042FA2D
:100A5000032005F021F804F009FD3B68BB4207D0F4
:100A600039699B688968994202D2084805F0AAFA58
:100A7000002383F311887FE7E41500200838012064
:100A8000E81500202CEF002034EF00208C2C01080A
:100A9000541100209CEE0020D82B01082DE9F04FC6
:100AA000AA4F83B00026B946A94CDFF8B8A2DFF8F8
:100AB000D08201E0EA0322D44FF0FF3004F0A2FD1F
:100AC00041050546F6D5202383F3118804F0BEFCCA
:100AD0001F234A464046032106F058FF04F0C6FC97
:100AE0002368A34207D022699B6892689A4202D287
:100AF000984805F067FA86F31188EA03DCD5F97B9C
:100B0000352900F27A81DFE811F06201780178017D
:100B10005C01780178017801780178017801780129
:100B2000780178017801780178017801780149012C
:100B300078017801780178017801780178013D0128
:100B40001501780111010E01780178017801780111
:100B5000F9007801D50078017801A200780136000B
:100B600078017801780178010E0178017801780127
:100B7000780178010E0197F90C30002BC0F27781D3
:100B800000230DF1020101A80193ADF80260FFF707
:100B9000A9FE90BBBDF80230002B00F0D4805D02AE
:100BA000B5F5805FA8BF4FF4805520234FEA552B41
:100BB00083F3118804F04AFC2B46674A4046032120
:100BC00006F0E4FE04F052FC2368A34207D0226939
:100BD0009B6892689A4202D25E4805F0F3F986F368
:100BE000118846F678114FF4803004F039FD002862
:100BF00040F01181594809F0A7FA02227B68584950
:100C0000CAF80860CAF800108AF80C20CAF8043044
:100C10000D215448FFF750FD202383F3118804F081
:100C200015FC1F234A464046032106F0AFFE04F0A0
:100C30001DFC2368A34207D022699B6892689A42F0
:100C400002D2444805F0BEF986F3118834E7002348
:100C50000DF1020101A80193ADF80260FFF742FE19
:100C60000028CAD1BDF8021000296CD0019811E00B
:100C700029463948FFF720FDBDF80210BB680198EE
:100C8000A1EB0B0189B25D1B5844ADF80210BD60A9
:100C90000190F9B10829A8BF08218B460A462E49C0
:100CA0004FEA4B25FFF7E6FC0028E1D02E4809F07B
:100CB0004BFAA2E74FF400322C4B2D499B6A2C488B
:100CC000013B4A601BBA08210360FFF7F5FCBD68D1
:100CD000083DBD60274A274B16735673204A9B7800
:100CE000CAF800208AF80C60CAF808507A682149CE
:100CF0006FF303038B70CAF8042089E708200222EF
:100D00001A4B1D499B6A4E721BBA4B601A4BCE722E
:100D1000D8700C2118461A729A72FFF7CDFCBD6884
:100D20000C3DBD60D6E7BE600025D3E7134809F04F
:100D30000BFA62E7FB7C03F00303022B00F0A180B7
:100D4000032B00F0A280BD68C4E700BFF827002095
:100D5000083801208C2C0108EC170020CC2B01084E
:100D60005553425340290020A82B01082436012066
:100D7000D817002050290020E0170020882B0108F8
:100D800070360120FD7C4548082D28BF08252946DE
:100D9000FFF792FCBA68551BBD609BE7B97CF87CF5
:100DA00008F05CFD3B7CDB0758D4242828BF2420B6
:100DB00085B229463A48FFF77FFCBA68551BBD60EB
:100DC00088E7FD7C3748122D28BF1225DFE7364B18
:100DD0007A6836491B78BE608AE84600002B32D11B
:100DE00002213A202F4A2F4D92786B7361F3030250
:100DF0008AF80C10AA7028730AE72D4809F0A4F9A4
:100E000005212022274B27489B78467361F3030373
:100E100083700273F1E65A4626490198FFF734FCC5
:100E2000002837D1BDF80230BA680199A3EB0B0353
:100E30009BB2551B5944ADF80230BD600191002BA7
:100E40007FF4ADAE46E7174B164A9B788AF80C60E4
:100E500066F30303167356739370D9E6072828BF09
:100E6000072085B229461448FFF726FCA5E705228E
:100E700020210C4B0B489B78017362F303038370B2
:100E8000BBE6094B1E70BD6824E70123064A1370B8
:100E9000BD681FE7094809F057F9AEE6382B01088D
:100EA000142B0108502900200008002055534253FC
:100EB000B42B0108EC170020402B01089C2B0108E3
:100EC00008B5202383F3118804F0C0FA0C4B18688E
:100ED000037D032B11D004F0C9FA0A4B1A689A4219
:100EE00007D0196993688A689A4202D2064805F0C9
:100EF00069F8002383F3118808BD04F055FDEAE783
:100F0000F0270020083801208C2C0108A0F10400F3
:100F1000FFF7D6BF3C4A3D48136BF0B543F00103E1
:100F2000136303680A2523F44003036003687027F2
:100F300043F4000303604368002623F40063436026
:100F4000C168334C21F44001C160C16883B0C16005
:100F50008168304B21F440018160816841F4400197
:100F60008160416A21F470414162416A41F420414B
:100F70004162116B41F0010111630168802221F08F
:100F800040710160016841F000710160416821F425
:100F900080514160C16821F04071C160C168C16089
:100FA0008168E57121F04071816085684FF494712A
:100FB00045F040758560456A25F470254562456AAF
:100FC00045F4202545622578134867F30605009609
:100FD000257005F0F5F8114C114B186006F002FC75
:100FE000204606F045FA20460E4906F06DFA0096B6
:100FF0000D4B80224FF494710C4805F0E1F80C4B36
:10100000186003B0F0BD00BF00380240000002408D
:10101000502900209D0A00081828002054110020A3
:10102000F4270020DC2B01085D0900089016002041
:10103000F027002010B50A4C41F28830626D936BA6
:1010400023F40023936305F025F92046054906F0B3
:10105000D9FB626D936B43F40023936310BD00BF13
:1010600070360120782B01080348426D936B23F4FE
:101070000023936306F0FEBB703601200022064970
:10108000064B01F10800203183E80300DA6683F89B
:1010900070205A679A677047642C0108E415002095
:1010A0007F2812D991B910B40E4A4FF4826303E03D
:1010B000802914D032F8023F98428CB201F101012C
:1010C000F6D104F1800010BC80B27047FF2804D82C
:1010D000044B803833F81000704700207047002020
:1010E00010BCF2E7982C010861280ED0012262237F
:1010F0000749984205D031F8023F0132002BF8D160
:101100007047044B33F8120070474120704700BF0E
:101110009A2D0108782F010870B504460C480D4639
:10112000164604F01BFE10B10024204670BD214677
:1011300033462A46074806F009F8044620B9044811
:1011400004F08AFE204670BD02F084FDF7E700BF80
:10115000183601202436012070B504460C480D468F
:10116000164604F0FBFD10B10024204670BD214658
:1011700033462A46074806F013F8044620B90448C7
:1011800004F06AFE204670BD02F064FDF7E700BF80
:10119000183601202436012008B50121044804F046
:1011A00047FD044B1879053818BF012008BD00BF62
:1011B00018360120243601200020704710461A46B8
:1011C000FFF7AABF10461A46FFF7C6BF032914D877
:1011D000DFE801F0020E0904002070474FF480732D
:1011E0000020136070474FF4007300201380704795
:1011F000034B00209B6A136070470420704700BFB8
:101200002436012008B5054B00EB400003EB8000BD
:101210000860012104F00CFD012008BD64290020B4
:1012200008B5002104F044FD012008BD08B542F2D4
:10123000107104F0EDFDB0FA80F0400908BD00BF68
:1012400004F00ABE01460822002004F051BA00BF93
:1012500004F0E2BA30B40468D4B125781F2D0AD95D
:101260003A2D15D0234602E03A2A07D00B465A7889
:10127000591C1F2AF8D8002030BC70470134A14205
:1012800006D1302D04D130BC0233036000207047FA
:101290004FF0FF3030BC70470B4610B40A440138A1
:1012A00013F8014B934200F8014FF9D110BC70477D
:1012B00058B110B5036882B004460BB11A7842B930
:1012C000002309200B6002B010BD002309200B6031
:1012D0007047D888A2889042F2D158780191FFF7E0
:1012E0006BFF10F0010F0199EAD123680B602368AE
:1012F0001869FFF79BFF00280CBF0F200020E2E7D2
:10130000F8B5446B00F13807054622463946407867
:101310000123FFF757FFB0B9AA6A2B6AA21A9A42B3
:10132000E8700ED2AE78012E01D80AE02B6A1C4478
:10133000013E2246012339466878FFF743FF012E1C
:10134000F4D10020F8BD0120F8BD00BF38B5436BD3
:101350008B4217D0C37804460D4673B92A46012341
:1013600004F138016078FFF729FF002816BF4FF01D
:10137000FF3500200120656338BDFFF7C1FF00285D
:10138000ECD038BD002038BD2DE9F843C3780546C0
:1013900063B92B78032B0FD0002268781146FFF732
:1013A00015FF003018BF0120BDE8F883FFF7A8FF44
:1013B0000028EED0BDE8F8832B79012BECD105F1A4
:1013C00038010B46002405F50E7203F8014B9342D9
:1013D000FBD14FF0520E72204FF0AA0C612741262C
:1013E0004FF05508AB6985F81C021A0A85F82032BF
:1013F00085F821224FEA13491A0E6B6985F82322DA
:101400001A0A85F8243285F825221A0C1B0E85F855
:1014100027326B6A85F826225A1C85F81D0285F84A
:10142000229285F836826A6385F837C285F838E0FB
:1014300085F839E085F83A7085F81F7285F83B60C9
:1014400085F81E6201236878FFF7BCFE2C71A3E7C4
:1014500000224FF0FF3310B5C27043630446FFF71C
:1014600075FF08B1042010BD4AF6552294F83712D2
:1014700094F8363243EA0123934201D0032010BD91
:1014800094F83830E92B07D0A36B144A03F0FF130C
:10149000934201D0022010BDB4F8701094F86F2070
:1014A00094F86E3042EA012243EA02230C4A23F008
:1014B0007F4393420FD0B4F88C2094F88B3094F88B
:1014C0008A0043EA0223074A40EA0320904214BFFD
:1014D0000220002010BD002010BD00BFEB009000D6
:1014E00046415400464154330023F0B50B6085B0AB
:1014F0000D461446FFF7AEFE071E0DDBC24B53F838
:10150000276036B13069FFF791FE40B90F2005B072
:10151000F0BD0C2005B0F0BD0B2005B0F0BD2E6075
:10152000337804F0FE0453B17078FFF745FEC50729
:1015300005D4F4B110F00400E9D00A20E7E7002355
:10154000F8B270703370FFF727FEC10701D5032092
:10155000DDE70CB14207F0D400213046FFF778FFF9
:10156000022808D0042826D0012840F2B8800D2097
:10157000CDE72046CBE76C46694606F5007306F5D5
:10158000107513F8062C42B11F8813F8010C13F8DC
:10159000022C40EA072042EA00221033AB4241F815
:1015A000042BEED104AF54F8045B35B90320A742F5
:1015B000F9D10428DBD10120A9E729463046FFF7FD
:1015C00047FF0128F3D896F8442096F8433043EAC1
:1015D0000223B3F5007FCAD196F84F2096F84E301B
:1015E00053EA02237DD1B6F85E1096F85D3096F886
:1015F0005C2043EA012342EA032296F84810326253
:101600004B1E012BB170B2D896F845E002FB01F1F8
:101610001FFA8EF37381002BA9D00EF1FF3313EA6A
:101620000E0FA4D196F84A3096F8494044EA0324B4
:10163000230734819BD196F84C0096F84B3053EA3F
:10164000002309D1B6F85A7096F8590096F8583028
:1016500040EA072043EA002396F8477096F84600D0
:1016600050EA072083D000EB14170F44BB42FFF46D
:101670007EAFDB1BB3FBFEF3002B3FF478AF4FF6DE
:10168000F57E73454AD840F6F57E73452BD8023374
:1016900028442F44F361B06237637562002C3FF435
:1016A00066AF03F0010404F2FF1403EB430304EB01
:1016B00053030844B2EB532FF062FFF458AF4FF0DE
:1016C000FF338022B3617361012332714F4A33705B
:1016D0001388002001339BB21380F38017E70025A5
:1016E00071E71A4689E7023328442F44F361B06258
:1016F00037637562002C3FF43AAF5B0003F2FF13CF
:101700000844B2EB532FF062FFF431AF4FF0FF33D8
:101710008022B361736132710223D7E796F863E0E8
:1017200096F86210023328442F4451EA0E21F361E7
:10173000B062376375627FF41AAF002C7FF417AF85
:10174000B6F8667096F8650096F864109B0040EA5B
:10175000072003F2FF1341EA0021B2EB532FF1629D
:10176000FFF405AF4FF0FF32802196F8690096F83C
:101770006830B26143EA0023012B7261317101D0FC
:101780000323A3E7691C3046FFF7E0FD0028F7D1EB
:101790004AF6552296F8371296F83632347143EAF3
:1017A00001239342ECD1718F96F8392096F83830A6
:1017B00042EA0122164943EA02238B42E0D1B6F8FD
:1017C0001E1296F81D2296F81C3242EA0122114997
:1017D00043EA02238B42D3D1B6F8227296F8214213
:1017E000B6F8265296F8250296F8201296F824228A
:1017F00044EA072440EA052041EA042142EA0022A3
:101800000323B161726161E770290020742900200F
:1018100052526141727241612DE9F84F06780446D7
:10182000022E0D46904657D0032E2ED0012E03D007
:1018300002273846BDE8F88F816A05EB550901EBB0
:101840005921FFF783FD07460028F2D1EB0709F184
:10185000010A04F1380BC9F3080955D51BF8093002
:10186000204603F00F0343EA08130BF80930A16A7E
:10187000E67001EB5A21FFF769FD00284ED1CAF34B
:1018800008035B44C8F3071855E0816A01EBD511E2
:10189000FFF75CFD07460028CBD10126AD0004F11F
:1018A000380005F4FE7541194B8828F070481B0478
:1018B00003F0704343EA080800F805804FEA182255
:1018C0004FEA18434FEA18684A708B7081F803801A
:1018D000E6703846BDE8F88F816A01EB1521FFF705
:1018E00035FD07460028A4D10122954005F4FF7577
:1018F00004F13803C8F30720591903F8058048702C
:10190000E2703846BDE8F88F0BF80980A16AE670EE
:1019100001EB5A212046FFF719FD08B1074688E779
:10192000CAF308031BF80320C8F3032822F00F02B0
:1019300042EA08085B44012283F80080E27078E7FD
:10194000012919D9C269F8B59142064607D2027831
:101950000C46022A29D0032A10D0012A01D00120E6
:10196000F8BD816A04EB540701EB5721FFF7EEFC49
:1019700068B34FF0FF30F8BD01207047816A01EB7A
:10198000D411FFF7E3FC0028F3D1A10006F13803DE
:1019900001F4FE715A1854885278585C42EA0423C4
:1019A00040EA032020F07040F8BD816A01EB142169
:1019B000FFF7CCFC0028DCD1610001F4FF7106F1D7
:1019C00038035A185278585C40EA0220F8BDB16AD0
:1019D000C7F308030137334401EB5721304693F82E
:1019E0003850FFF7B3FC0028C3D1C7F308033344D2
:1019F00093F83800E30745EA00204CBF0009C0F324
:101A00000B00F8BDB1F5001F01D302207047CA06D4
:101A1000F8B50C4601D00220F8BD81680546046186
:101A2000076829B93B78022B19D9FB6ABBB1194663
:101A30007E897602B44226D3A41B384608E00128EA
:101A4000E9D9FB699842E6D2A6421DD82868A41BB2
:101A5000FFF776FF431C0146F1D10120F8BD3B8919
:101A6000B3EB541FD7D9FA6AAA616961002AD2D0B0
:101A700007F13803C4F3080102EB54220B44EB6175
:101A8000AA610020F8BDFB69023B881E98422FBF67
:101A900000227A893B6B00FB0232AA61E5E700BFB6
:101AA0002DE9F04107468846066849BB7569F36928
:101AB000F5B901252C4606E0012815D001302ED0BD
:101AC000AC4219D0F36901349C4202D3012D13D9E1
:101AD000022421463868FFF733FF0028ECD1012C9F
:101AE00002D9F3699C421FD301242046BDE8F0814E
:101AF0009D4228BF0125DDE700242046BDE8F08196
:101B00003046FFF71DFF01280446EDD9431C06D0DF
:101B1000F3699842E9D34546CCE70128E4D14FF078
:101B2000FF342046BDE8F0814FF0FF3221463046B9
:101B3000FFF772FE0028F0D1B8F1000F0CD0B8F119
:101B4000010FD1D9F3699845CED24146224630469D
:101B5000FFF762FE0028E0D1F269B369023A9342CE
:101B6000746101D2013BB361337943F001033371F6
:101B7000BBE700BF012908D9F8B506680D46F3692F
:101B80000746994203D30220F8BD022070475AB19C
:101B9000012AF8D99342F6D9114630464FF0FF3268
:101BA000FFF73AFEB8B1F8BD304615E029460022ED
:101BB0003046FFF731FE0028F5D1F269B369911E76
:101BC0008B4205D23179013341F00101B3613171AA
:101BD000944211D2254638682946FFF7B1FE0446E3
:101BE00050B10128CFD0431C08D0012DCBD9F369C7
:101BF0009D42DBD30220F8BD0020F8BD0120D2E7D2
:101C000083690BB9042070472DE9F04F056983B053
:101C10002035B5F5001F03D3042003B0BDE8F08FD5
:101C2000C5F308070E46044602683FBB416901330D
:101C3000836151B35389013B13EA55231ED11046EA
:101C40000192FFF77DFE01288046019A25D9B0F167
:101C5000FF3F36D0D369984221D202F13806A0F175
:101C60000209023B99452EBF00235389126BC4F829
:101C7000148038BF09FB0323A36101E002F1380699
:101C80003E44E66125610020C7E71389B3EB551F89
:101C9000F4D800230420A361BFE70220BDE7002E93
:101CA000F7D0616920460192FFF7FAFE019A80465B
:101CB00048B90720B1E710460192FFF721FB019ACE
:101CC00048B10120A9E70128E7D0B0F1FF3FF8D0E3
:101CD000D378002BEFD102F138063346002102F50C
:101CE0000E7003F8011B9842FBD1D369A8F10209D9
:101CF000023B994520D25189136B09FB0133536391
:101D00004FF0000A4FF0010B0EE082F803B01046CE
:101D10000192FFF7F5FA0028D3D1019A0AF1010ADE
:101D2000536B5189013353638A45EED3516BD369A9
:101D3000A1EB0A01516394E700235189DFE700BF5B
:101D40002DE9F04F002185B006460768FFF75AFEDF
:101D5000002853D14FF0FF334FF0FF0A9846D14689
:101D6000F3620BE00F2B4CD04FF0FF09C6F82C802C
:101D700000213046FFF744FF00283FD1B1693846C3
:101D8000FFF7E4FA002839D1F4692578002D00F036
:101D90009280E27AE52D02F03F03B371E4D012079E
:101DA000E0D40F2B2DD0B9F1000F0FD1214604F153
:101DB0000B0511F8012B4FEAC91343EA5909914465
:101DC000A94209F0FF09F4D1CA4517D096F82B3083
:101DD000DB07C9D42546314615F80B3B11F8202FF7
:101DE00001349B1A002BBFD114F8013B11F8012FCD
:101DF000AC42A3EB0203F5D1002BB5D105B0BDE891
:101E0000F08F96F82B305806B2D469064ED5336958
:101E100094F80DA005F0BF05F36294F80DB0D3451A
:101E200046D1E27EA37E53EA022341D1012194F8F8
:101E300000A0F8680AF03F0A0AF1FF3A294B0AEBC2
:101E40004A02009003950AEB820A254601971C4638
:101E50000846029614E0BAF17F0F21D84846FFF7F2
:101E600043F9009B074633F81A00FFF73DF9874214
:101E700016D14846B2461C4BA34220D014F8011F8D
:101E800005EB010E9EF801E015F801900AF101063C
:101E900049EA0E290028DED14FF6FF739945EAD0B2
:101EA000019F029EDA464FF0FF0961E7A945B4D0D1
:101EB0004FF0FF095CE7042005B0BDE8F08F2C4629
:101EC0002378019F5A06039D029E04D518B1009BFA
:101ED00033F81A3023B9013D5FFA85F9DA4647E74E
:101EE000DA46E5E7D8310108E43101082DE9F04F81
:101EF0000746D0F800A085B00B780D462F2B01F1D6
:101F00000101F9D05C2BF7D00021B96028781F2897
:101F100040F23B815346019180B21F28DE6847D9C9
:101F20002F282DD05C282BD00121A9460124A6F111
:101F30000208FFF7B5F8F8B17F2809D822281BD08E
:101F40002A23A14A984217D012F8013F002BF9D159
:101F500028F8020F19F8010F631C1F2840F2DD80DA
:101F60002F280FD05C280DD0812B05D001211C46D5
:101F7000FFF796F80028DFD1062005B0BDE8F08F06
:101F8000002401232B441A781D462F2A03F1010354
:101F9000F9D05C2AF7D05CB14FF0000906EB44029F
:101FA00032F8023D202B01D02E2B07D1013CF7D176
:101FB00000230620338005B0BDE8F08F2021BDF856
:101FC000043006EB440226F8143007F12B0007F129
:101FD000200303F8011B8342FBD1B31E4FF000081E
:101FE00001E008F1010833F8020F2028F9D02E286B
:101FF000F7D0B8F1000F01D049F00309134633F8C8
:10200000022D2E2A01D0013CF9D1002321469B4606
:102010001C4608222B4635460E4608F1010880B3BF
:10202000202821D02E281DD0944222D2B04578D02D
:102030007F2800F283802B280AD02C21DFF890E142
:1020400004E01EF8011F002900F08D808142F8D1C4
:102050005F2049F00309391981F82000013435F86F
:102060001800DAE7B04502D049F00309F7E79442D7
:1020700057D30B2A00F09C80B04554D049F0030997
:1020800051D91D4697F82030E52B04BF052387F86A
:102090002030082A04BF4FEA8B0B5FFA8BFB0BF052
:1020A0000C030C2B47D00BF00302032A43D019F08A
:1020B000020F0AD10BF0030BBBF1010F08BF49F06F
:1020C0001009042B08BF49F0080987F82B903846FF
:1020D000FFF736FE97F82B3000284ED15A073FF510
:1020E0004CAFBB79DB0646D53A690AF13803C2F337
:1020F000080213449AF80010D87E9A7E032942EA17
:10210000002203D0BA6028783B6805E7597D1B7D23
:1021100043EA012342EA0342F4E71D444FF0040975
:102120003CE70B2A44D04FEA8B0B5FFA8BFBB0469F
:102130000B22082493E749F00209B8E70021039332
:102140000292FEF7ADFF029A039B48B11F4949F086
:102150000209084410F8800C00283FF479AF6AE7C0
:1021600049F0020974E7A0F14101192916D84BF092
:10217000020BC0B26FE70520FFE604287FF4FDAE36
:1021800013F0040F08BF0520F7E68023384687F8D0
:102190002B3005B0BDE8F04FFFF734BCA0F1610172
:1021A000192997BF2038C0B2C0B24BF0010B52E7DB
:1021B0001D4697F8203049F00309E52B7FF46FAFF7
:1021C000052387F820306AE7E93101085831010812
:1021D000F53101082DE9F04F90F82B308BB013F05A
:1021E000A00204D0062630460BB0BDE8F08FD0F830
:1021F00000B0DBF80C301988002900F0D980904637
:1022000033F8022F08F10108002AF9D100F1200467
:102210000546214607A80C22FFF73EF89DF8273017
:10222000DE076CD540234FF0010985F82B300B22D7
:1022300007A92046FFF730F84B469E4F07220DF1C5
:102240001B0603F00F0000F13001392988BF00F1AF
:1022500037011B0902F1FF3206F80119F1D17E2086
:102260000AA9114401F8140C62B195F82010202934
:1022700009D0214603E011F8010F202803D00133D3
:102280009A42F8D113462344072A0AA911448EBF63
:10229000202111F8141C013203F8011B191B072916
:1022A000F2D92846FFF74CFD064608BB09F10109A3
:1022B000B9F1640F77D00B2207A92046DBF80C6038
:1022C000FEF7EAFFB9F1050F4B46B7D9023E36F8E3
:1022D000022F002AB2D0102102F0010000EB4303CC
:1022E000D80348BF7B4001394FEA5202F4D1EEE7F0
:1022F00004287FF478AF9DF8273085F82B309B07B2
:1023000043D44FF0010800212846D5F80090FFF78C
:1023100079FB0646002843D1074606E0074601211F
:102320002846FFF76DFC002839D1A9694846FFF718
:102330000DF8013798BBEB691B78E52B01D0002B1A
:10234000ECD1B845EBD1B8F1010933D1A9695846B0
:10235000FEF7FCFF064600287FF445AF3146EB69E7
:1023600003F1200203F8011B9A42FBD121460B2204
:10237000E869FEF791FF012295F82B30E96903F037
:1023800018030B738BF803202DE74B4B08F10C0857
:10239000A3FB08384FEA980808F10108B3E706469E
:1023A000042E7FF420AF072630460BB0BDE8F08F37
:1023B00088462BE729692846A1EB4911FFF722FB44
:1023C000064600287FF40FAF2146024605F12B0098
:1023D000D30111F8016B43EA52033344814203F005
:1023E000FF02F5D1DFF8D4A002920394A969584600
:1023F000FEF7ACFF0346002859D15FFA89F808F1CF
:10240000FF3606EB4602E96906EB82069DF80820D6
:10241000DBF80C404A734FF00F0208738876C876D9
:10242000A446012006F10047CA72244A013F04EB8A
:102430004707019237F8022F0C184FEA122E0A5460
:10244000013684F801E00133EAB90D2B0AD0FF22EE
:10245000013B534413F8010F0C180A5418486270DA
:102460009842F7D148F04008012381F800802846BF
:1024700000218BF80330FFF7C3FBC0B9B9F10109A4
:10248000B4D1039C62E70D2B08D04FF6FF70824257
:10249000DDD0019A12F8010F0192CBE74FF6FF73DE
:1024A0009A42DFD03CF81630002BDBD0DCE7064642
:1024B00099E600BF211001004FECC44ED83101084D
:1024C000E43101080F2902D00069FEF7B9BE704758
:1024D0002DE9F0410027D0F800808F758369002B2B
:1024E00062D0C36A0D46013306461CD0D8F80C30C2
:1024F000188898B101F1150701240AE0812C0DD04C
:1025000007F8010FD8F80C30621C33F8140030B112
:1025100014460021FEF7C4FD0028EFD1002400235B
:102520002C44A375AF7D00214FF02E080A46F669B2
:10253000741E14F8013F0132202B1BD0052B08BF5D
:10254000E523092A38D06818437297B9A3F1410EE0
:10255000BEF1190F0CD8092A34BF4FF0080E4FF006
:10256000100E96F80CC01CEA0E0F1CBF2033DBB215
:10257000837501310B2ADCD16818BFB10023437287
:10258000F37A2B72F18B727F337F42EA012243EAA6
:1025900002232B60318BF27DB37D42EA012243EAB4
:1025A00002231A0CEB80AA80BDE8F0818775337B8B
:1025B000002B08BF2846E1E768180FB980F816809D
:1025C00080F809800131BEE72DE9F84FFF27044666
:1025D00006683D46042006E0FF2500212046FFF75F
:1025E0000FFB002859D1A16900295AD03046FEF7C7
:1025F000ADFE002851D1E1690A78002A4CD0CB7A8F
:10260000E52A03F03F03A371E6D02E2AE4D023F09D
:10261000200EBEF1080FDFD00F2B47D1500638D562
:1026200023694F7B02F0BF05E3624B7BBB42D3D1F2
:10263000CA7E8B7E53EA0223CED1012291F800E0BC
:102640002B480EF03F0E0EF1FF3E0EEB4E034FF601
:10265000FF7A9446D6F80C900EEB830E00F10C082E
:102660000BE0BEF17F0FB7D89C4629F81E300EF163
:10267000010E80452ED010F8012F8B1893F801B071
:102680008B5C43EA0B23BCF1000FEAD15345F0D039
:10269000A2E7AA42A0D1C8E704200023A361BDE8B5
:1026A000F88F0028F9D10020BDE8F88F6DB90A46EF
:1026B0000B3112F8016BEB0143EA550535448A42B0
:1026C00005F0FF05F5D1BD42EDD04FF0FF33E362D9
:1026D000BDE8F88F0B785B0606D5BEF17F0F3FF69D
:1026E0007BAF002329F81E30013DEDB275E700BF36
:1026F000D8310108F0B585B004AB43F8041D019052
:10270000184600911746FEF7A5FD051E2EDB1C4E50
:1027100056F825404CB12069FEF782FD18B9022415
:10272000204605B0F0BD00232370019911B30024A9
:10273000E8B201F8104BFEF765FD0028EFD0019BD1
:1027400046F82530D3B1012FEAD1224601A96846C7
:10275000FEF7CAFE044601980028E1D00C2CDFD019
:102760000B2CDDD02146FFF7ADFED9E70B24204628
:1027700005B0F0BD0C4646F82510D1E71C46CFE762
:10278000702900202DE9F04391B00191C8B102F009
:102790003F070546164603A93A4601A8FEF7A4FEE0
:1027A000044698B1002303982B6030B10C2C04D060
:1027B0000B2C02D02146FFF785FE204611B0BDE864
:1027C000F0830924204611B0BDE8F083039B4FF449
:1027D00081700493FEF736FD039B8046002800F0CD
:1027E0008380D860019904A8FFF780FB88B99DF920
:1027F0003B30002B76DB16F01C0F00F085809DF837
:10280000163013F0110F40F08780760712D5082498
:1028100003E016F01C0F04D104464046FEF718FDF5
:10282000C0E70428F8D104A8FFF7D4FC0028F3D1AE
:1028300047F00807380700F18380DDF80CE0DEF888
:1028400034300B9A2B626A629EF80030D17E92F887
:102850001AC0032B4CEA012C67D0002005F12C068E
:1028600001463346C5F808C0B2F81E9092F81DC064
:10287000127F4CEA092C42EA0C22EA60BEF80620DC
:10288000C5F800E0AA80A8626874E86168612F74E6
:1028900005F50B7203F8011B9342FBD1B90629D54C
:1028A000EF683FB3BEF80A90A9684FEA49294F453F
:1028B0006F6140F28980A7EB090705E0421C21D037
:1028C000B94580F081801F462868FFF739F8012854
:1028D0000146A7EB0903F1D80224A9614046FEF79F
:1028E000B7FC5FE7062097E733B31869FEF7A8FC4B
:1028F000112462E74046FEF7ABFC039800287FF402
:1029000059AF5AE70124E8E79DF81630D90615D4E7
:10291000B20703D5DB0701D507247EE73007DDF8D2
:102920000CE08CD547F0400789E7517D137D43EAE1
:1029300001234CEA034C90E711243EE704246CE7A2
:1029400000224A21212020260B9BDDF80CE059743F
:102950009A73DA7318740B9B59769A75DA75187630
:102960000B9BDE720B9B9EF80020D97E9E7E032A75
:1029700046EA01264DD000229A76DA769EF80010BB
:10298000032904BF1A755A75012100220B9B1A777F
:102990005A779A77DA778EF80310002EC2D004A8FF
:1029A0003146DEF83490FFF7E5F800287FF434AFC5
:1029B00049460398FEF7CAFCDDF80CE0013ECEF86C
:1029C00014600028AED027E7C7F30803A961002BE5
:1029D00090D003980239C369023B994220D24289C0
:1029E000036B01FB0232DAB102EB5722EA61314696
:1029F00040780123FEF7E2FB0646071C404618BF5D
:102A00000127FEF725FC6EB9039800287FF4D2AEAB
:102A1000D3E6597D1A7D42EA012246EA0246AAE738
:102A20000224FAE63C46BDE62DE9F04F9846002325
:102A300085B08946C8F8003003A914460646FEF75B
:102A400037FC70B9757C75B1039830B10C2D04D08A
:102A50000B2D02D02946FFF735FD284605B0BDE80D
:102A6000F08F0546F0E7337CD9075DD57269F768CA
:102A7000BF1AA74228BF2746002F00F0BD8006F1ED
:102A80002C0A42E00399500A4B89013B034053D181
:102A9000002A66D1B068012840F2C080421C00F0D4
:102AA0009A80B061CA690238023A904280F0A880E8
:102AB0004A890C6B00FB0244002C00F0A1805FEA05
:102AC000572B1C443AD003EB0B00904288BFA2EB7B
:102AD000030B48785FFA8BF322464946FEF76EFBFC
:102AE00000285ED196F91030002B79DB4FEA4B2B92
:102AF0007369B7EB0B075B447361D8F80030D944B6
:102B00005B44C8F8003077D07269C2F3080100292D
:102B1000B8D0C1F5007BBB4528BFBB4651445A46DF
:102B20004846FEF7B9FBE3E7039B002B44D0186946
:102B3000FEF786FB072590E7B069B3E7F269944298
:102B40000AD096F91030002B38DB48780123224652
:102B50005146FEF733FB20BB7169F461C1F30801F4
:102B6000D7E7D6F828E0BEF1000F4FD03268DEF884
:102B70000440B2F80AC00EF10402B0FBFCF04CB104
:102B8000A04202D215E0844213D8001B52F8084F2D
:102B9000002CF8D1022373740869FEF751FB02255B
:102BA0005BE70125039B7574C3B11869FEF748FB09
:102BB00053E7526810446EE707254EE74878012333
:102BC0005146FEF7FFFA0028EBD1337C039903F05E
:102BD0007F033374B9E70125757499B901253CE782
:102BE000F069001B834581D909EB40204FF4007246
:102BF0005146FEF751FB79E7039B002BD5D12CE71B
:102C0000022575740869FEF71BFB26E7B169306879
:102C10000193FEF795FE0399019B3CE7022575742D
:102C200000293FF41AAFB7E72DE9F04F9A46002389
:102C300085B08946CAF8003003A917460446FEF756
:102C400037FB70B9667C76B1039830B10C2E04D096
:102C50000B2E02D03146FFF735FC304605B0BDE8FB
:102C6000F08F0646F0E7217C8A0776D56369FB4240
:102C700028BFDF43002F00F0E98004F12C0201920D
:102C800057E0039A580AB2F80AB00BF1FF3B1BEA6F
:102C9000000B0FD1002B74D1A068002800F0C38076
:102CA000012800F0E180431C00F0B780A368A06118
:102CB00003B9A06094F91030002BC0F28780A1699D
:102CC000D369A1F10208023B984580F0C180538985
:102CD000116B08FB0311002900F0BA807D0A0BEB91
:102CE000010842D00BEB0501994288BFA3EB0B050D
:102CF0005078EBB242464946FEF764FA00285CD1B0
:102D0000E169A1EB08018D4200F293806D026369D5
:102D1000E2682B449A4238BF1A466361E260DAF8EF
:102D200000307F1B2B44A944CAF8003000F08D808E
:102D30006369C3F308000028A3D0C0F50075BD4245
:102D400028BF3D46019B2A4618444946FEF7A4FA8F
:102D5000237C63F07F032374D9E7039B002B50D0BF
:102D60001869FEF76DFA072677E7E3696069984509
:102D700002D0E368984246D3C4F81C80C0F3080030
:102D8000DBE7A16A002969D025684B686D890431A9
:102D9000B0FBF5F04BB1984202D225E0834223D834
:102DA000C01A51F8083F002BF8D1237C43F04003B0
:102DB00023741069FEF744FA4FE70126039B6674FB
:102DC000002B2ED01869FEF73BFA46E75078012316
:102DD000E2690199FEF7F6F90028EED1237C039A07
:102DE00003F07F0323746AE74B68184400287FF4DC
:102DF00057AF217C41F040012174002A3FF42DAFF0
:102E0000D7E7072629E75078012342460199FEF7C4
:102E1000D5F90028D1D16069AEE701266674002A91
:102E2000C7D1012619E759462046FEF739FE039A15
:102E3000DCE709EB41214FF400720198FEF72CFA10
:102E4000237C03F07F03237460E7217C039AD1E79E
:102E5000022666741069FEF7F3F9FEE6A1692046C2
:102E6000FEF71EFE039AC1E702266674002AA0D16F
:102E7000F3E600BF30B5456883B0002D09DB431988
:102E800001353C2D0446197305DCA36865600133E8
:102E9000A36003B030BD01AB2A4600F10C0100680D
:102EA000FFF7C2FE019B5D1B18BF4FF0FF35ECE73B
:102EB0004268002A14DB10B582B0044600F10C0110
:102EC00001AB0068FFF7B0FE30B96268019B9A421F
:102ED00002D1A06802B010BD4FF0FF3002B010BDAB
:102EE0004FF0FF30704700BFF0B583B001A9054631
:102EF000FEF7DEF90446002838D12B7C5A0641D56E
:102F00001B0643D4296A0198FEF720FA044668BBE1
:102F10006B6ADA7A42F02002DA72AA682968C2F390
:102F20000720D8769A760978032944D000214A20D0
:102F300021270126EA68019C4FEA122E1A7783F8AE
:102F40001DE04FEA124E120E587683F81EE0DA7733
:102F50009975D9759974D9741F762046E670FEF775
:102F600013FA04462B7C23F040032B74019830B1F4
:102F70000C2C04D00B2C02D02146FFF7A3FA2046DC
:102F800003B0F0BD01980028F6D1F8E7019A0123BB
:102F9000507805F12C01EA69FEF714F930B1019B74
:102FA00073B11869FEF74CF90124E8E72B7C03F0B4
:102FB0007F032B74A6E7120C110A1A755975B5E731
:102FC0000124DCE730B583B00546FFF78DFF0446EA
:102FD00010B1204603B030BD01A92846FEF768F9BC
:102FE00004460028F5D1019B2860002BF1D0186918
:102FF000FEF726F9204603B030BD00BF2DE9F04FA3
:1030000083B00E4601A90546FEF752F970B96C7CF3
:1030100074B1019830B10C2C04D00B2C02D0214695
:10302000FFF750FA204603B0BDE8F08F0446F0E702
:10303000A86A002800F08480771C45D0EB689E4287
:1030400028BF1E466E61002E3AD02B68711E5A8929
:103050004368490AB1FBF2F204302BB967E0D21A97
:1030600050F8083F002B62D09342F8D943681344CC
:103070009A1E0198AB61C369023B93425AD94789B2
:10308000036B02FB0733002B54D0C6F30806002E57
:10309000C5D07E1E3140EA69CE189642BFD095F960
:1030A000103005F12C07002BC0F2F980394640782A
:1030B00001233246FEF782F8002840F08F80EE614F
:1030C00001980028AED0AAE7AF6800F1040AD0F852
:1030D00000904FF00208EFB13E464FF0000B05E0C4
:1030E000461C7BD09842064640F0908031462868C6
:1030F000FEF726FC012806F101030BF1010BEFD8C6
:103100000224019B6C74002B00F0BA801869FEF752
:1031100097F887E7019BC845C0F800806AD800226D
:103120001846CAF8002000283FF47CAF77E76FF01C
:1031300001029EE702246C740069FEF781F871E7D2
:10314000EB689E4204D92A7C12F0020F08BF1E468B
:1031500000236A696B61019B002E46D0B3F80A8098
:103160004FEA4828002A4BD0013A731EB2FBF8F10F
:10317000B3FBF8F38B4243D3C8F100031A40AF69A5
:103180006A61B61A002F52D0464598BF019B40F2A3
:10319000A080A6EB080616E02846FEF781FC07464D
:1031A000002843D07B1C19D0012F40F2A580019A42
:1031B000D16913468F425ED2B045AF6180F08980FD
:1031C0006A69A6EB08062B7C42446A619A07394675
:1031D000E2D42868FEF7B4FB0746E3E70124019B2D
:1031E0006C74002B92D101241CE7184600283FF490
:1031F00019AF14E71846112400283FF413AF0EE767
:10320000AF68002F3ED00022AF61BBE708F1020893
:10321000C14505D3534643F808BBCAF804709A4623
:10322000019BDA69904272D2074655E76A69019BB1
:10323000E96891426DD2297CEA6041F04001C2F315
:1032400008022974002AD0D0EA699742CDD095F9B6
:10325000101005F12C0600292EDB58783146012389
:103260003A46FDF7ABFF0028B8D10198EF6100287E
:103270003FF4D8AED3E602236B741069FDF7E0FF8C
:103280000224CFE639462846FEF70AFC0128074605
:103290003FF436AF411CA1D0A8606A69B4E740781A
:1032A00039460123FDF78EFF002897D12B7C01982A
:1032B00003F07F032B74F9E6587831460123FDF7BC
:1032C00081FF00288AD12A7C019B02F07F022A74A8
:1032D000C3E76A69C6F3080132446A61A9B1D969D2
:1032E000B81E023988420DD25F89196B00FB07179F
:1032F00047B107EB56279BE70223019A6B74002A1C
:10330000BED0BAE702246C7400E70F4690E7A86AC3
:1033100001E7C2F3080295E770B584B0019118B3D4
:103320000546002203A901A8FEF7DEF80446F8B11D
:10333000002303982B6018B10C2C01D00B2C0DD15D
:10334000204604B070BD3046FDF782FF042CEFD15B
:10335000002303982B6005240028F1D02146FFF7B5
:10336000B1F8204604B070BD0924204604B070BDF9
:10337000039B4FF481702B60FDF764FF039B0646AF
:1033800000282CD0D86001992846FEF7AFFD0446EE
:103390000028D8D195F92B30002B1EDBAB79DB064A
:1033A00023D5039BE9691878CC7E8A7E032842EAFC
:1033B000042220D0AA60DB880021AB802846FEF7DB
:1033C00021FB04463046FDF743FF042CC0D0002CFF
:1033D000AED103980028C1D1B2E7039BEBE743B11C
:1033E0001869FDF72DFF1124AAE73046FDF730FFDD
:1033F000AEE71124A4E7487D097D41EA002142EAB5
:103400000142D7E72DE9F04182B00D4601A90646F9
:10341000FDF74EFF044690B9F5B14FF48170FDF70A
:1034200011FF019B0746E8B13046DF60FFF7CCF89B
:1034300010F0FB0804461BD03846FDF709FF019841
:1034400030B10C2C04D00B2C02D02146FFF73AF8F7
:10345000204602B0BDE8F08101463046FEF7D2FAC0
:103460000446ECE78BB11869FDF7EAFE1124EFE79B
:1034700029463046FFF72CF841463046FEF7C0FBA0
:10348000042814BF04460024D6E71124E0E700BF57
:103490002DE9F041804682B017464E1E05460024B5
:1034A0000FE001AB012269463846FFF7BDFA019BE8
:1034B000012B08D19DF8003001340A2B05F8013B9F
:1034C00001D0B442EDDB00239C4214BF40461846B5
:1034D0002B7002B0BDE8F0810EB400222DE9F0435C
:1034E0009CB023AB53F8046B099000930A920B92A3
:1034F000317841B125290ED009A80136FFF7BAFC71
:1035000031780029F6D109A8FFF7D2FC1CB0BDE83C
:10351000F04303B070477178302900F014812D29F1
:1035200000F0188100270236A1F13003092B4FF07B
:1035300000040AD804EB840401EB440416F8011BD0
:10354000303CA1F13003092BF4D901F0DF034C2BFF
:1035500027D00029D7D0A1F16103192B8EBF0B46CC
:10356000A1F12003DBB2A3F14202162A00F2E780A8
:10357000DFE812F0D800DD00CA00E500E500E50054
:10358000E500E500E500E500E500E500E5001C00DC
:10359000E500E500E5008D00E500CA00E500E50076
:1035A0008400317847F004070136D2E778074FF0FE
:1035B000080C00F1AE80442B64D1009B1A1D1868E2
:1035C00000920028BCBF404247F0080778290CBF92
:1035D0004FF027094FF007090DF1030E4FF00008D7
:1035E00003E0202D00F0B380A846B0FBFCF20CFBFA
:1035F0001201CBB2092984BF4B44DBB230331046F1
:103600000EF8013F08F10105002AEAD13A0706D574
:103610002D231CAA154405F86C3C08F1020517F08F
:10362000010F0CBF4FF020094FF03009BB0700F12C
:10363000A580A54205F1010708D204F10108013770
:10364000494609A8FFF716FC4745F8D10DF10408D3
:10365000454415F8011D09A8FFF70CFC4545F8D1B4
:10366000A74207F10105BFF443AF013401354946D4
:1036700009A8FFF7FFFBA542F8D139E77A0776D40E
:103680004FF0100C009B1A1D009218689EE7009BDB
:10369000D3F80090043399F80010009300296FD0FC
:1036A0004B46002500E0454613F8012F05F10108BF
:1036B000002AF8D1BF0751D4A04505F1020705F152
:1036C000030501D361E04746202109A8FFF7D2FB9B
:1036D000A74207F10108F6D399F80010BD1C31B1DB
:1036E00009A8FFF7C7FB19F8011F0029F8D14445C5
:1036F00001D8FDE61D46202109A8FFF7BBFBA54226
:1037000005F10103F6D3F3E678074FF00A0C7FF5D5
:1037100052AF009A442B02F10400009010683FF46D
:1037200050AF53E77B071BD44FF0020CAAE7009B76
:1037300009A81A1D19780092FFF79CFBD8E609A882
:10374000FFF798FBD4E6B17801270336ECE64FF09B
:103750001F085BE7B17802270336E5E60235BFE7CD
:10376000009B4FF0020C1A1D009218682EE7009B78
:103770004FF0100C1A1D0092186827E72F4665E7D6
:10378000B80704D588460125B1E7B846A8E7012760
:10379000002C99D1ACE600BF38B50C460546014671
:1037A00001222046FEF7EEFF10B9E36843B138BDB1
:1037B00004280ED001460A4806F0C6FC012038BD98
:1037C0002046FFF7FFFB2946064806F0BDFC0A200D
:1037D00038BD2946044806F0B7FC012038BD00BFBB
:1037E0001C320108FC3101080C32010810B50446F6
:1037F0000A2208462146FEF7C5FF28B102462146A7
:10380000024806F0A1FC012010BD00BF30320108C3
:10381000FFF7D8BB00232DE9F04788461360014627
:103820001A481746FFF778FD58BB194C174E254626
:1038300004F11609002329463046A3756372FFF789
:10384000E1FDF0B9A37DBBB9607AE8B1237ADB066C
:10385000F0D4DFF840A050460EF0C6FD0428E9D9A8
:1038600003385044032241460EF0ECFD0028E1D11C
:103870003B6801333B60DDE7237ADA06DAD4CA46D7
:10388000E9E70120BDE8F087BDE8F087A42B002020
:10389000D42B0020DD2B00200149FFF77DBF00BFA6
:1038A000782900200148FFF78DBB00BF7829002050
:1038B000F8B50F4C0F4D27460F4E6269E3689A42E8
:1038C00001D10E20F8BD3A464FF480712846FFF72B
:1038D000DFFD0028F5D0314628460EF015FE0378AE
:1038E000064A232B1060E8D0002BE6D00020F8BD5C
:1038F000782900206C2C0020443201086C2D002017
:103900000A490A6822B1002302600B60184670471A
:1039100010B50749044610460EF0F6FD0346002890
:1039200014BF00200A20236010BD00BF6C2D0020B2
:1039300044320108F0B583B0054601A8FFF7E0FF67
:1039400050BB019F06463B783C46222B03D114F81E
:10395000013F222BFBD038460EF046FD01383B5C80
:103960003844222B08D1874202D305E0874203D096
:1039700010F8013D222BF9D0001B421C002A04DC68
:10398000002330462B7003B0F0BD214628460EF0D0
:1039900089FD304603B0F0BD0126304603B0F0BDCE
:1039A0002DE9F0414FF00008A24DA34C2B6B80F89D
:1039B000388243F004032B632268A04B22F4403288
:1039C00022602268074642F40032226062680A20C0
:1039D00022F480726260E268994E22F44032E26022
:1039E000E26842F48032E260A26822F44032A260CF
:1039F000A26842F40032A260626A22F00F026262A0
:103A0000626A42F00C0262622A6B42F004022A638C
:103A1000226822F440222260226842F400222260BE
:103A2000626822F400726260E26822F44022E2607E
:103A3000E26842F48022E260A26822F44022A2609E
:103A4000A26842F40022A260626A22F0F00262627E
:103A5000626A42F0C00262622A6B42F004022A6388
:103A6000226822F440122260226842F4001222608E
:103A7000626822F480626260E26822F44012E260CE
:103A8000E26842F48012E260A26822F44012A2606E
:103A9000A26842F40012A260626A22F4706262625A
:103AA000626A42F4406262622A6B42F004022A6354
:103AB000226822F440022260226842F4000222605E
:103AC000626822F400626260E26822F44002E2600E
:103AD000E26842F48002E260A26822F44002A2603E
:103AE000A26842F40002A260626A22F4704262623A
:103AF000626A42F4404262622A6B42F004022A6324
:103B0000226822F040722260226842F00072226035
:103B1000626822F480526260E26822F04072E260E1
:103B2000E268E260A26822F04072A260A26842F0FD
:103B30000072A260626A22F470226262626A42F4D7
:103B4000402262622A6B42F008022A631A6822F05D
:103B500030021A601A6842F020021A605A6822F095
:103B600004025A60DA6822F03002DA60DA6842F061
:103B70001002DA609A6822F030029A609A6842F085
:103B800020029A601A6A22F470621A621A6A42F477
:103B900040621A6202F07EFB2B6B4FF4801243F0FE
:103BA00004032B632368282023F4407323602368D5
:103BB00043F480732360636823F0100363606368D9
:103BC0006360E36823F44073E360E368E360A36841
:103BD00023F44073A360A36843F40073A360A2615D
:103BE00002F058FB03F08CFB3046414603F096FB95
:103BF000304603F0F3F878B90446B16A114806F08C
:103C0000A3FA224610493846FEF774FD48B901234D
:103C100087F83832BDE8F0810C48BDE8F04106F085
:103C200093BA0B4806F090FA3046BDE8F04103F035
:103C300015BB00BF0038024000080240000C0240E3
:103C40002436012070320108244401085C32010846
:103C50008432010808B5044806F076FA0022034BC6
:103C600083F8382208BD00BF50320108702D0020B3
:103C7000012070470020704780B400AFEFF3098344
:103C8000203383F30988002383F31188BD4680BC69
:103C9000704700BF98B5202300AF83F311880E4B07
:103CA0005B6813F4006302D183F3118898BDEFF3CE
:103CB00009844FF08072A4F1200344F8042C83F3AC
:103CC000098801F075FF18B1044B44F8083C98BD11
:103CD000034B44F8083C98BD00ED00E09102000859
:103CE0009C02000800224FF0FF310A4B186919614D
:103CF0001A61586959615A61186A60F080501862F7
:103D00001A62586A59625A621A6C42F080521A64F6
:103D100001F00CBB0038024001F001038A0748BFE4
:103D200043F002034A0748BF43F008030A0748BFAD
:103D300043F00403CA0648BF43F010038A0648BF95
:103D400043F020038A05026848BF43F04003134351
:103D50000360704710B501F0C5FB202383F3118881
:103D6000002401F097FB084B2146DC63074802F072
:103D7000CFFA01F0A1FB84F3118801F0CBFBBDE881
:103D80001040FFF787BF00BF002C014060360120C4
:103D900010B5054C204603F0B5FA0021034A044B48
:103DA000E1636264A36410BD24360120103401086D
:103DB000002C0140C36A10B504461BB32379154A91
:103DC000012B226406D00022A36C1A605A60DA62CA
:103DD0005A6210BD002309211A46606C01F0D0FA26
:103DE00098B90720626CA36C126880339360092134
:103DF0005061312004F0A2F8074A536C43F4006389
:103E00005364E0E7054BC362D8E7054802F0DAF8EF
:103E1000E7E700BF2054A30800380240FC32010845
:103E2000BC3201087822836C64205A601A6842F020
:103E300003021A605A6842F480725A6002F02ABA89
:103E4000826C536823F0FF03536070470022836C39
:103E50005A601A60704700BF826C0129536823F4CE
:103E6000C05307D003D3022903D143F480535360D6
:103E70007047704743F4006353607047806C41F4AF
:103E800080618260C160436B1B06FCD58023836325
:103E9000704700BF10B5846C41F48861A260E16096
:103EA000616B11F04502FBD0A26311F0040203D153
:103EB000104662691A6010BD3430FFF72DFF0120F3
:103EC00010BD00BF10B5846C41F48861A260E16050
:103ED000616B11F04502FBD0A26311F0050203D122
:103EE000104662691A6010BD3430FFF715FF0120DB
:103EF00010BD00BF2DE9F041202304460D461646B3
:103F000083F3118801F0A2FAA16CCB6B002B34D1A2
:103F10004B6BDB0539D5606C0268136813F0010345
:103F2000FBD13D2290F808E04768224802FA0EF2E1
:103F30003A608863CB6201F099FA1F4B1A689A4283
:103F400004D0196993688A689A420BD3002282F3DD
:103F50001188012D0ED933462046BDE8F0410C21D1
:103F6000FFF7B0BF154802F02DF8002282F3118848
:103F7000012DF0D81046BDE8F08104F13C0002F0BC
:103F8000B1F9A16C4B6BDB05C5D401F06FFA0A4B9C
:103F90001A689A4207D0196993688A689A4202D2CD
:103FA000064802F00FF8002383F311880120BDE8D2
:103FB000F08100BFFF07C0000838012094320108DB
:103FC0002DE9F0473D26436C8846197A856C914669
:103FD0005A688E4007461868696B1660036823F0BC
:103FE0001F030360046814F00104FBD10A4B166040
:103FF00007F13400AB63EC63EC62FFF78DFEB8F1C0
:10400000010F07D94B4622463846BDE8F0470C2140
:10401000FFF758BFBDE8F087FF07C00010B5846CFC
:1040200041F49861A260E160616B11F04502FBD040
:10403000A26311F03F0209D11046226A1A60E269B8
:104040005A60A2699A606269DA6010BD3430FFF785
:1040500063FE012010BD00BFF0B5B2F1807F83B0D8
:10406000154604460E461F463DD2A36C204A204604
:104070005A6203F0D5F8002833D140F22A3C4FF0C1
:104080000F0E636C226C1B68A808DE6058601A6013
:104090001A68A06C42F001021A60164B01AE8363ED
:1040A0003946C0F83CC033468562089AC0F82CE017
:1040B0002046FFF707FF38B1204632460121FFF7BF
:1040C0007FFF012003B0F0BD019A0B4B1340002B82
:1040D000F2D1324601212046FFF70CFF0028EBD138
:1040E000F0E701AEE8E7054801F06CFFBDE700BF6F
:1040F00000366E01FF07C00008E0FFFDA032010896
:10410000F0B5B3F5004F83B01D4604460E46174682
:1041100041D2A36C254A20465A6203F081F808B1C7
:1041200003B0F0BD40F22A3C4FF09B0E636C226C52
:104130001B6869028808DF6058601A601868A26C02
:1041400040F001001860236B1948DB0658BF760267
:1041500001AF012D90633B46C2F83CC09162C2F8AA
:104160002CE032461BD912212046FFF7ABFE50B996
:10417000019A104B134033B93A4629462046FFF7BF
:10418000B9FE0028CCD020463A462946FFF718FF52
:10419000012003B0F0BD084801F014FFB9E7112178
:1041A0002046FFF78FFE0028E2D0ECE700366E01D4
:1041B000FF07C00008E0FFFDCC320108F0B5B3F501
:1041C000004F83B01D4604460E46174642D2A36CEC
:1041D000264A20465A6203F023F808B103B0F0BD26
:1041E00040F21A3E636C216C1B686A02900841F031
:1041F0004001DF60586019601868A16C40F0010050
:104200001860236B1A48DB0658BF760201AF012DF8
:1042100088633B46C1F83CE08A6232461ED91921C8
:104220002046FFF74FFE68B9019A124B13404BB975
:104230009921A36C3A46D96220462946FFF75AFED7
:104240000028CBD020463A462946FFF7B9FE012088
:1042500003B0F0BD084801F0B5FEB8E718212046CC
:10426000FFF730FE0028DFD0ECE700BF00366E011C
:10427000FF07C00008E0FFFDE432010812F0030F61
:1042800021D02DE9F0411F46D3B1154680460C469A
:104290000E4E0F4409E028464FF400723146FCF7F9
:1042A0007DF8BC4205F500750AD02146012332464F
:1042B0004046FFF725FF01340028ECD0BDE8F0812F
:1042C0000020BDE8F081FFF71BBF00BFAC2F00202E
:1042D00012F0030F21D02DE9F0411F46D3B115464E
:1042E00080460C460E4E0F4401E0BC4212D02946D7
:1042F0004FF400723046FCF751F821460123324654
:104300004046FFF75BFF013405F500750028ECD04F
:10431000BDE8F0810020BDE8F081FFF74FBF00BF8E
:10432000AC2F0020002070472DE9F04F202385B0EE
:104330000546466D83F3118801F088F8DFF888920E
:1043400005F1640303932B78012B04D02B6E4BB93A
:104350007369DB0606D4B369039843F01003B361B5
:1043600001F0C0FF01F082F8D9F800304B4508D0C9
:10437000D9F810209B6892689A4202D2904801F0C6
:1043800021FE4FF0000A8AF311887369DB0650D5CD
:104390006C6D226A02F4F013B3F5802F1ED0B3F5D2
:1043A000402FF2D102F00F0305EB8303DB68C2F369
:1043B0000A12186A002AE8D0002104F580540B463E
:1043C00001E09A42E1D09F0708BF2168072B03F163
:1043D0000103F6D80170090A0130F2E702F00F0E6E
:1043E00005EB8E0EDEF80C30C2F30A129B69596899
:1043F0001F6898687F1AAAB100210B4604F5805403
:1044000013F0030F08BF21689F4203F1010302D993
:104410000170090A01309A42F2D1DEF80C309B6932
:104420009868596810440A4498605A607369DB06BA
:10443000AED401222B6E02FA0AF41C420DD10AEB13
:104440000207AB6D5FFA87FA9B689A459DD92023D6
:1044500083F3118800F0FAFF75E7202383F31188B6
:1044600000F0F4FFB2682B6E22F0010223EA04038D
:10447000B2602B6600F0FAFFD9F800304B4508D047
:10448000D9F810209B6892689A4202D24C4801F0F9
:1044900099FD002383F3118805EB8A0BDBF80CE010
:1044A000DEF8140090E80C009A427CD90AF101076A
:1044B000009601944FEA4A1A4FEA073874461646A6
:1044C00002971EE06E6D06EB0A02D2F8182992B22E
:1044D000B7EB820F38D8846806EB080E97BB3948D3
:1044E00001F070FD226846F80820DBF80C40606996
:1044F0004368826806683B443A449E428260436057
:104500004BD9278AA6EB030CBC45DBD86B6D03EBBC
:104510000A02D2F8182992B2BCEB820F14D8614675
:10452000846803EB080E20680429CEF8000007D940
:104530000B4654F8042F043B042BCEF80020F8D887
:104540000F46D2E73946EEE74FF00008009E019C87
:10455000029F202383F3118800F078FFB36843F0B3
:104560000103B360B8F1000F04D1D6F834381C430E
:10457000C6F8344800F07AFFD9F800304B4508D02F
:10458000D9F810209B6892689A4202D20C4801F038
:1045900019FD002383F3118853E7009E019C029FBD
:1045A0004FF00108D5E7202383F3118800F04EFF78
:1045B000B3680AF1010743F00103B360DAE700BF13
:1045C00004330108203301080838012070B50A4C73
:1045D0004FF0A046204603F007F90023074D04F5ED
:1045E000CC7104F170006665A5656366A36655220B
:1045F000BDE8704001F060BD7036012060330108F5
:104600000378012B00D07047F0B5404B476D9842BE
:1046100087B0064618BF3C464DD00023C0214FF45A
:10462000502233662020C7F8003E3960BA6301F09B
:104630002FFD012323612369DB07FCD4122001F045
:1046400027FD2369002BFCDA00234FF0FF341946C5
:104650001A46B06D756D8068BB6005EB4113013182
:104660008142C3F80029C3F81029C3F80849C3F8E8
:10467000002BC3F8102BC3F8084BEED94FF00111F3
:104680007368C5F81C18DB68C7F81028C7F8142829
:10469000C7F81C2863B11E4BBB614FF0FF32B36EED
:1046A0007A61F3B1BB6843F00103BB6007B0F0BDB2
:1046B000184BBB61F1E70024174B0E215A6B4320C6
:1046C00042F080025A635A6942F080025A615C618A
:1046D00003F034FC114A124BFA60746DC7F80038CD
:1046E0009BE702250F49104C06F1700206F5CC73CA
:1046F000684605960395009404910192029301F097
:1047000027FDB06601F080FACCE700BF70360120CB
:10471000083C30C0003C30C000380240401400402B
:1047200003002002294300086C3301080378012BA1
:1047300025D0002170B50A464FF0FF34836D456DDA
:104740009E6805EB41130131B142C3F80029C3F85B
:104750001029C3F80849C3F8002BC3F8102BC3F87D
:10476000084BEED94FF001110A4BC5F81C189842BE
:104770000266C5F81C28AA60AA6301D070BD704704
:10478000432003F0F5FB044A536B23F0800353638B
:10479000F4E700BF7036012000380240F8B520234E
:1047A0000646456D2B612C6914F02004FBD11220C4
:1047B00001F06EFC4FF001134FF000604FF0FF313D
:1047C000B76D2246C5F83448BC68C5F81C3805EBFF
:1047D00042130132A242C3F80009C3F8000BC3F828
:1047E0000819C3F8081BF2D910233968726DF165F6
:1047F000396869621361146914F01004FBD1122046
:1048000001F046FC0921D5F80038144A23F4FE6370
:10481000C5F80038AB69124843F4402343F0100355
:10482000AB61C5F81018C5F81418F060C5F8104B46
:10483000C5F8002BC5F81049C5F80029F46DB26D14
:1048400004F11003F3655268934202D9054801F060
:10485000B9FB44F48014AC62F8BD00BF4080001086
:104860003C33010810330108426D90F84E10D2F825
:10487000003823F4FE6343EA0113C2F8003870479E
:104880002DE9F84F00EB8107FB6880461A680C465B
:1048900002F00302022A68D0032A63D05148524929
:1048A000012A0CBF814689460020D8F85450660181
:1048B0009969AA19C2F8100B00295DD00122588A03
:1048C00004F1580140EA090049016850D5F81C1864
:1048D00004F1100082400A43C5F81C2800205A69E0
:1048E000A919C1F81009002A58D09A8B198A012AEF
:1048F0004FEA910388BF5343D8F85CB0D8F85820EA
:1049000003EB0B01C8F85C1052681E04914204F1DD
:10491000FF3A2DD8D8F854200AF1400AA10105EB3E
:104920008A0A46EA0B0641F02001CAF804601161C8
:1049300013699906FCD4122001F0AAFB0121FA6840
:1049400004F14803128A5B0142EA845242EA0902F6
:10495000EA50D5F81C3801FA04F41C43C5F81C4889
:10496000BDE8F88FDFF88C909EE7DFF88C909BE72E
:104970001E4801F027FBCDE70121D2F8000B04F11E
:10498000100E20F40040C2F8000BD5F81C2801FAE4
:104990000EF122EA0102C5F81C289FE7D8F854203E
:1049A00004F13F011248A30105EB810143F020030C
:1049B0004860136113699B06FCD4122001F068FB68
:1049C00001232E44D6F8002903FA04F422F400420D
:1049D000C6F80029D5F81C3823EA0403C5F81C38AA
:1049E000BDE8F88F0080041000800010103301082B
:1049F0000004000200800C1000800810002270B437
:104A000011464FF0FF34836D456D1E68C66598688A
:104A100005EB421301328242C3F80019C3F81019A2
:104A2000C3F80849C3F8001BC3F8101BC3F8084BB0
:104A3000EED94FF00113C5F81C3870BC704700BFA9
:104A4000436D583149015B5813F4004004D013F40E
:104A5000001F14BF01200220704700BF436D483182
:104A600049015B5813F4004004D013F4001F14BF35
:104A700001200220704700BF00EB8101CB681B6A58
:104A800019685B6811605360704700BF00EB8103D9
:104A900030B4DC68A3691D68DD6009B9402D2DD8EC
:104AA000638A24685A1E2A44B2FBF3F202FB03F322
:104AB0000333406D23F0030343EAC243490104F08A
:104AC000030243F0C0434418012AC4F8103B0CD140
:104AD000D0F8083813F4807FD4F8003B14BF43F0BB
:104AE000805343F00053C4F8003B0144D1F8003B2D
:104AF00030BC43F00443C1F8003B704740221546E8
:104B00001A60CDE72DE9F0412B4E0546776D07EB96
:104B10004013D3F8084B2007C3F8084B03D5D7F848
:104B2000143819073DD4E20727D5D7F81438DB0726
:104B300023D525BB96F83430002B3AD0F1688A692A
:104B4000488A5468B4FBF0F300FB1343D3B91068F0
:104B5000D368984216D21B1A82E82800202383F3D8
:104B6000118800F097FC29461348FFF78FFF00F0EB
:104B7000A3FC85F31188BDE8F081BDE8F08106EB68
:104B80008503D96801227389AA40CC6823EA02030D
:104B90007381002CF1D029462346BDE8F041064838
:104BA000184706EB8503DB6829465B683046984763
:104BB000B9E7BDE8F08100BF7036012000EB81034A
:104BC000DA6870B454692368E36053BB4FF400257E
:104BD000406D4B01C418C4F81059126802F003026A
:104BE000012A0DD1D0F80828C41812F4807FD4F817
:104BF000002914BF42F0805242F00052C4F800294C
:104C000001220344D3F8004902FA01F144F00444BC
:104C1000C3F80049D0F8343870BC1943C0F83418D0
:104C2000704771B143F00055168A406D741E2344DD
:104C3000B3FBF6F44B0145EAC444C518C5F8104966
:104C4000CBE7402BEED94026014D33462660EBE7FB
:104C5000400000202DE9F0412E4E0746756D05EB12
:104C60004013D3F80849E107C3F8084903D5D5F83C
:104C70001038DA070AD4230606D50123D5F83428DC
:104C800003FA07F7174218D1BDE8F08106EB80035D
:104C9000D9684B691868DA68904227D301223389B2
:104CA000D1F80880BA4023EA02033381B8F1000F3B
:104CB000E1D039463046C047DDE7202383F3118831
:104CC00000F0E8FBD5F83428336E22EA0702C5F875
:104CD00034281F4300211048376601F019FB00F00B
:104CE000EBFB002383F31188BDE8F0814FF000084F
:104CF000121A83E80401202383F3118800F0CAFB11
:104D000039463046FFF75AFF00F0D6FB88F311888A
:104D1000B1E700BF70360120D43601202DE9F84FED
:104D2000A04E00F0DFFB776D7D69BB691D4015F477
:104D300080587D6140F0FF80002DC0F2E8802B0597
:104D400000F1DF80AC040CD5D7F8083813F0060F5B
:104D5000FB6823F470530CBF43F4105343F4A05387
:104D6000FB6028072BD4E90231D4AA0200F19D8010
:104D7000E80600F187802903D7F818480BD5E2032D
:104D800000F10C81A30300F10581670300F1FE80AF
:104D9000260300F1E4806D030BD5E00700F1E68007
:104DA000A10700F1E980620700F1EC80230700F120
:104DB000CD8000F0AFFBBDE8F84FFEF76BBF736826
:104DC000DB68002BCFD077489847E902CDD5002487
:104DD000DFF8D491D6F854A006E0B36D01349B6897
:104DE000E4B29C42A046C0D80AEB4411D1F8003985
:104DF00003F44023B3F5802FEFD1D1F80039002B15
:104E0000EBDAD1F8003943F09043C1F80039D1F81A
:104E10000039002BFBDB4FEA8818716D48F0200346
:104E20000B610B699B06FCD44FF0010808FA04F8EB
:104E30006FEA080B122001F02BF906EB8403DB6804
:104E400031899B680BEA0101318113B12146554834
:104E50009847202383F3118800F01CFBDAF83438DC
:104E6000316E0BEA0303CAF83438484641EA0803B6
:104E70000021336601F04CFA00F01EFB002383F39F
:104E80001188AAE7202383F3118800F003FBBB6994
:104E9000002123F01003BB61434801F039FA00F010
:104EA0000BFB002383F3118865E700244FF0010911
:104EB000D6F85480DFF8ECA006E0B36D01349B68AF
:104EC000E4B29C423FF654AF08EB4412D2F8003BE8
:104ED00003F44023B3F5802FEFD1D2F8003B002B31
:104EE000EBDA06EB8403DA68738909FA04F1D26815
:104EF00023EA01037381002ADFD021465046904700
:104F0000DBE700232748336602F0B6FD1AE7D7F83F
:104F1000003E9A0705D0D7F8003E23F00303C7F8F8
:104F2000003ED7F804381F4843F00103C7F804389F
:104F300002F0B0FD03E700233046336602F07EFD49
:104F400000F0E8FABDE8F84FFEF7A4BE0320FFF733
:104F500081FE00F0DFFABDE8F84FFEF79BBE0320AC
:104F6000FFF7D0FD6D037FF524AF16E70020FFF7B4
:104F700071FEA1077FF517AF0120FFF76BFE6207F7
:104F80007FF514AF0220FFF765FE0FE70220FFF761
:104F9000B9FDFDE60120FFF7B5FDF6E60020FFF7BD
:104FA000B1FDEFE670360120D4360120436D03EBEE
:104FB0004111D1F8003B43F40013C1F8003B7047A6
:104FC000436D03EB4111D1F8003943F40013C1F8EC
:104FD00000397047436D03EB4111D1F8003B23F4D6
:104FE0000013C1F8003B7047436D03EB4111D1F84A
:104FF000003923F40013C1F80039704708B500F0F8
:1050000071FA084B084A196801F03D01996013686C
:105010000BB15068984700F07DFABDE80840FEF7F4
:1050200039BE00BF00600240C431002010B500F05E
:1050300059FA094B094819688268890901F03D014C
:105040008C019C600AB1C068904700F063FABDE82B
:105050001040FEF71FBE00BF00600240C4310020B8
:1050600010B500F03FFA094B094819680269090CAC
:1050700001F03D010C049C600AB14069904700F0CA
:1050800049FABDE81040FEF705BE00BF00600240CF
:10509000C431002010B500F025FA094B0948196801
:1050A0008269890D01F03D018C059C600AB1C069DF
:1050B000904700F02FFABDE81040FEF7EBBD00BFAF
:1050C00000600240C431002008B500F00BFA084B24
:1050D00008485968026A01F03D01D9600AB1406A86
:1050E000904700F017FABDE80840FEF7D3BD00BFB7
:1050F00000600240C431002010B500F0F3F9094B04
:1051000009485968826A890901F03D018C01DC6017
:105110000AB1C06A904700F0FDF9BDE81040FEF703
:10512000B9BD00BF00600240C431002010B500F0DE
:10513000D9F9094B09485968026B090C01F03D0186
:105140000C04DC600AB1406B904700F0E3F9BDE865
:105150001040FEF79FBD00BF00600240C431002038
:1051600010B500F0BFF9094B09485968826B890DE9
:1051700001F03D018C05DC600AB1C06B904700F086
:10518000C9F9BDE81040FEF785BD00BF00600240D0
:10519000C431002008B500F0A5F9084B084819688B
:1051A000026C01F03D0199600AB1406C904700F03B
:1051B000B1F9BDE80840FEF76DBD00BF00640240D4
:1051C000C431002010B500F08DF9094B0948196869
:1051D000826C890901F03D018C019C600AB1C06CB0
:1051E000904700F097F9BDE81040FEF753BD00BFAF
:1051F00000640240C431002010B500F073F9094B7F
:1052000009481968026D090C01F03D010C049C600D
:105210000AB1406D904700F07DF9BDE81040FEF7FF
:1052200039BD00BF00640240C431002010B500F059
:1052300059F9094B09481968826D890D01F03D0142
:105240008C059C600AB1C06D904700F063F9BDE821
:105250001040FEF71FBD00BF00640240C4310020B3
:1052600008B500F03FF9084B08485968026E01F094
:105270003D01D9600AB1406E904700F04BF9BDE89E
:105280000840FEF707BD00BF00640240C4310020A3
:1052900010B500F027F9094B09485968826E890951
:1052A00001F03D018C01DC600AB1C06E904700F056
:1052B00031F9BDE81040FEF7EDBC00BF00640240CC
:1052C000C431002010B500F00DF9094B09485968A8
:1052D000026F090C01F03D010C04DC600AB1406F63
:1052E000904700F017F9BDE81040FEF7D3BC00BFAF
:1052F00000640240C431002010B500F0F3F8094BFF
:1053000009485968826F890D01F03D018C05DC6008
:105310000AB1C06F904700F0FDF8BDE81040FEF7FD
:10532000B9BC00BF00640240C431002070B4002545
:105330000D4E2B4629460D4A0D480E4C356001E0B6
:1053400052F80C0C016044F833100133102B02F1B9
:105350000C02F5D14FF0FF3370BC0749074A8B6050
:10536000CB609360D36070474432002098330108CB
:1053700010600240C431002000600240006402401E
:10538000F0B5054685B0002841D00120244C6F7A45
:10539000D4F800E000FA07F616EA0E0F2CD12148E7
:1053A00046EA0E0616F0FF0F00EBC70E266040F827
:1053B0003720CEF8043004D01B48036B43F40013AD
:1053C000036316F47F4F19D12B68186820F01F0073
:1053D00018601C6814F00104FBD13D20212795F8CA
:1053E00008E06E6800FA0EF030601C605F615AB130
:1053F000A87A02F0A3FD204605B0F0BD0A48036B71
:1054000043F480030363DFE7104605B0F0BD0748AF
:1054100003930292019100F0D5FD01A90EC9B4E7F2
:1054200044320020C43100200038024078330108A3
:10543000044B9A6A0AB9DB6A13B1034800F0C2BD93
:10544000704700BF083801204C34010810B5054CE6
:10545000A36A0BB9E36A13B1034800F0B3FD01235B
:10546000E36210BD083801206434010810B5074C10
:10547000A36A2BB9E36A002B02DD0023E36210BDAF
:10548000034800F09FFD0023E36210BD08380120AF
:105490007434010810B5064CA36A002B01DDE36AE1
:1054A00013B1044800F08EFD0123E36210BD00BF7C
:1054B000083801206C34010810B5084CA36A002B91
:1054C00005DDE36A002B02DD0023E36210BD044822
:1054D00000F078FD0023E36210BD00BF0838012012
:1054E0007C34010810B5202383F31188074CA36A8C
:1054F000002B01DBE26A1AB1054800F063FDA36AE4
:105500000133A362002383F3118810BD0838012002
:105510005434010810B5202383F31188074CA36A83
:10552000002B01DDE26A1AB1054800F04BFDA36AC9
:10553000013BA362002383F3118810BD08380120CA
:105540005C340108054B9A6A002A03DBDB6A002BF6
:1055500000DD7047024800F035BD00BF083801206B
:1055600084340108044B9A6A1AB9DB6A002B00DD07
:105570007047024800F026BD083801208C3401082D
:1055800038B504460D46FFF7DDFFB4B1E169237D70
:1055900029430A2BE1610CD00B2B00D038BDA36945
:1055A0008B43FBD10023A3612046BDE8384000F0C7
:1055B000FBB9A3691942F5D138BD024800F002FDDC
:1055C000E4E700BFB834010870B506460D46FFF7A2
:1055D000B9FF8EB13468A6420DD0E3682B43E36077
:1055E00015B12269134203D0A1686068FFF7C8FFB4
:1055F0002468A642F1D170BD014800F0E3FCE9E760
:10560000A0340108F8B5144C06462569202383F31D
:105610001188FFF71BFFEB6913EA060706D1AE619D
:105620000A2000F039FAEB6906EA030723EA0703C8
:10563000EB61FFF71BFF2368A34207D022699B6839
:1056400092689A4202D2054800F0BCFC002383F322
:1056500011883846F8BD00BF08380120943401088D
:105660002DE9F041174C054688462669202383F32F
:105670001188FFF7EBFEF36913EA05070CD1B8F1C7
:10568000000F0CD0B56141460A2000F027FA00282F
:1056900005DBF36905EA030723EA0703F361FFF774
:1056A000E5FE2368A34207D022699B6892689A426C
:1056B00002D2054800F086FC002383F311883846A7
:1056C000BDE8F08108380120943401080022064B1F
:1056D00010B4064C9A60DA601C6003F110000121DE
:1056E00010BC00F0A5BA00BF483200205159000894
:1056F0002DE9F04F814683B09346884609B1002AD0
:1057000048D1434800F05EFC424BBBF1080F38BF64
:105710004FF0080BB9F1000F08BF994609F11003CB
:10572000184608F1070A01934FEADA0A00F016FB5F
:1057300009F1080E0BF1FF3CCBF10001DEF800305F
:1057400003F1080606EB0C040C40A4F108075BB15A
:105750005A68551C03EBC505AF4203D2281BC01085
:1057600082451BD99E46E9E7019800F075FBD9F800
:105770000030002B49D00AF10100C000594698477B
:10578000002842D0C0F80090C0F80480083003B070
:10579000BDE8F08F531E1342B6D0B2E7BB421CD314
:1057A00092452CD034461F460AF1010A03EBCA0089
:1057B00000F108011A68691AC91043F83A204160DB
:1057C000CEF800000198C7F80480C7F8009000F0F8
:1057D00043FB204603B0BDE8F08FBA1BD2108245D0
:1057E0005A60EFD26FEA0A020AF1010A104407EB8D
:1057F000CA025060196847F83A101A60E2E71A685E
:105800003446CEF800201F46DCE70020BFE700BF8B
:10581000C8340108483200202DE9F84381460028A9
:105820003CD010F0070F39D159F8042C59F8083C36
:105830000732D20803F1100703F1080849F8042CD5
:10584000384600F08BFA4446264EA9F10805AC42D2
:1058500005D86368013304EBC3039D4222D344455A
:10586000236801D0AC4202D21BB19D4201D31C4639
:10587000EDE749F8083C256019E90A00013305EB1A
:10588000C3028A4212D06268531C04EBC3039D42D8
:105890001AD03846BDE8F84300F0DEBA114800F0EF
:1058A00091FBC1E7304600F08DFBD8E752681A44FF
:1058B00049F8042C55F8333049F8083C6268531C09
:1058C00004EBC3039D42E4D159F8043C384601334C
:1058D0001A44626059F8083C2360BDE8F84300F0C0
:1058E000BBBA00BFDC34010803490448044B054A35
:1058F00008601A60704700BF6C3200203839012000
:10590000683200200000022070B50D460446FFF703
:1059100019FE15B16B1E2B4202D00A4800F052FB53
:10592000094E0A4933686A42581E013C0B682844F4
:105930001040611911401B1A99429ABF0918316031
:10594000002070BDF43401086C3200206832002061
:1059500038B504460D46202383F31188FFF776FD02
:1059600029462046FFF7D0FF0446FFF77FFD084B8E
:105970001A689A4207D0196993688A689A4202D2D3
:10598000044800F01FFB002383F31188204638BD34
:1059900008380120E83401080022024B9A601B609D
:1059A0005B6070470838012010B50446FFF7CAFD58
:1059B000B4B1237D83B10F2B0ED00022A1680A4B16
:1059C00022751B689A688A42FBD25A682046236077
:1059D000626014605C6010BD044800F0F3FAECE70C
:1059E000024800F0EFFAE4E7083801200835010822
:1059F00038B50446202383F31188FFF74BFD237D40
:105A0000052B0FD8DFE803F0140E0E1A0903A56961
:105A1000FFF798FDAB680133AB6094E80C001A60A7
:105A2000226853604FF0FF332046A361FFF7BCFFAD
:105A3000FFF742FD002383F3118838BD0022A369DC
:105A400020461A604FF0FF33A361FFF7ADFFEFE789
:105A500010B50446FFF776FDB4B1237D83B10F2B5B
:105A60000ED00022A1680A4B22751B689A688A42F0
:105A7000FBD85A6820462360626014605C6010BDE9
:105A8000044800F09FFAECE7024800F09BFAE4E7D4
:105A9000083801201435010870B506460D4C2569FB
:105AA000FFF760FD012120682E7503685C602360AC
:105AB00020610175EFF309832969243B994203D9D9
:105AC000054800F07FFA20692946BDE87040FAF7E2
:105AD000CDBB00BF083801203835010870B50C4631
